S0120000556172745F4C617965722E737265631A
S11300000C942A000C9447000C9447000C9447006D
S11300100C9447000C9447000C9447000C94470040
S11300200C9447000C9447000C9447000C94470030
S11300300C9447000C9447000C9447000C94470020
S11300400C9447000C9447000C9447000C94470010
S11300500C94470011241FBECFE5D8E0DEBFCDBF0E
S113006010E0A0E6B0E0ECE1F1E002C005900D92F2
S1130070AA36B107D9F720E0AAE6B0E001C01D9284
S1130080AA36B207E1F70E9469000C948C000C9424
S1130090000087E689B98AB188698AB980B586681B
S11300A080BD08955D9BFECF8CB908955F9BFECF04
S11300B08CB10895CF93DF93EC018881882331F0CC
S11300C021960E94520089918111FBCFDF91CF913B
S11300D00895A29A0E94490080E690E00E945A0086
S11300E00E9456002FEF33ED90E3215030409040B2
S11300F0E1F700C00000813311F4AA9A01C0AA9864
S11301000E9452002FEF33ED80E3215030408040B5
S10F0110E1F700C00000E4CFF894FFCF3A
S10D011C4142444F200D200A000068
S9030000FC
