S0250000536572766F5F54696D65725F315F436F6E74726F6C5F544F505F4F43522E737265632B
S11300000C942A000C9434000C9434000C943400A6
S11300100C9434000C9434000C9434000C9434008C
S11300200C9434000C9434000C9434000C9434007C
S11300300C9434000C9434000C9434000C9434006C
S11300400C9434000C9434000C9434000C9434005C
S11300500C94340011241FBECFE5D8E0DEBFCDBF21
S11300600E9436000C9491000C9400008FB58268B5
S11300708FBD8EB588618EBD81B3806381BB8EB523
S113008083608EBD87E893E197BD86BDE9EFF0E01C
S113009067E371E046E751E026EA31E085EE91E05E
S11300A0AFEFB7EAC1E6A150B040C040E1F700C0ED
S11300B00000FBBDEABDAFEFB7EAC1E6A150B04016
S11300C0C040E1F700C000007BBD6ABDAFEFB7EAF6
S11300D0C1E6A150B040C040E1F700C000005BBDE4
S11300E04ABDAFEFB7EAC1E6A150B040C040E1F766
S11300F000C000003BBD2ABDAFEFB7EAC1E6A15086
S1130100B040C040E1F700C000009BBD8ABDAFEF26
S1130110B7EAC1E6A150B040C040E1F700C000001A
S1090120BFCFF894FFCFED
S9030000FC
