S01400004B65795061645F7265765F312E7372656396
S11300000C942A000C9434000C9434000C943400A6
S11300100C9434000C9434000C9434000C9434008C
S11300200C9434000C9434000C9434000C9434007C
S11300300C9434000C9434000C9434000C9434006C
S11300400C9434000C9434000C9434000C9434005C
S11300500C94340011241FBECFE5D8E0DEBFCDBF21
S11300600E94C6000C94D3000C9400008FEE82BB57
S1130070809905C0D89A809BFECFD898089581991D
S11300800BC081EE94E00197F1F700C00000D99A0B
S1130090819BFECFD9980895829905C0DA9A829BF4
S11300A0FECFDA980895839904C0DB9A839BFECF30
S11300B0DB9808958FED82BB809905C0D89A809B08
S11300C0FECFD898089581990BC081EE94E00197F2
S11300D0F1F700C00000D99A819BFECFD99808950A
S11300E0829905C0DA9A829BFECFDA9808958399A3
S11300F004C0DB9A839BFECFDB9808958FEB82BB11
S1130100809905C0D89A809BFECFD898089581998C
S11301100BC081EE94E00197F1F700C00000D99A7A
S1130120819BFECFD9980895829905C0DA9A829B63
S1130130FECFDA980895839904C0DB9A839BFECF9F
S1130140DB9808958FE782BB809905C0D89A809B7D
S1130150FECFD898089581990BC081EE94E0019761
S1130160F1F700C00000D99A819BFECFD998089579
S1130170829905C0DA9A829BFECFDA980895839912
S113018004C0DB9A839BFECFDB98089580EF81BB8C
S11301908FEF8ABB0E9436000E945A000E947E00A4
S10D01A00E94A200F7CFF894FFCFED
S9030000FC
