S023000054305F776176655F67656E65726174696F6E5F4354435F4D6F64652E73726563C3
S11300000C942A000C943C000C943C000C943C008E
S11300100C943C000C943C000C943C000C943C006C
S11300200C943C000C943C000C943C000C943C005C
S11300300C943C000C943C000C943C000C943C004C
S11300400C943C000C943C000C943C000C943C003C
S11300500C943C0011241FBECFE5D8E0DEBFCDBF19
S113006020E0A0E6B0E001C01D92A036B207E1F79F
S11300700E943E000C9445000C940000BB9A83B788
S1110080896183BF8FE78CBFFFCFF894FFCF59
S9030000FC
