S01400005265766973696F6E5F44494F2E7372656386
S11300000C942A000C9434000C9434000C943400A6
S11300100C9434000C9434000C9434000C9434008C
S11300200C9434000C9434000C9434000C9434007C
S11300300C9434000C9434000C9434000C9434006C
S11300400C9434000C9434000C9434000C9434005C
S11300500C94340011241FBECFE5D8E0DEBFCDBF21
S11300600E9436000C944E000C9400008E9A8898DE
S1130070809BFECF2FEF89EF90E02150804090408D
S1130080E1F700C00000969A2FEF84E39CE0215032
S113009080409040E1F700C00000EACFF894FFCF21
S9030000FC
