S01E000054696D65725F305F44656C61795F496E7472727570742E7372656361
S11300000C942A000C943C000C943C000C943C008E
S11300100C943C000C943C000C943C000C943C006C
S11300200C943C000C943C000C943C000C94660032
S11300300C943C000C943C000C943C000C943C004C
S11300400C943C000C943C000C943C000C943C003C
S11300500C943C0011241FBECFE5D8E0DEBFCDBF19
S113006020E0A0E6B0E001C01D92A336B207E1F79C
S11300700E943E000C9481000C94000083B78360BE
S113008083BF89B7816089BF789481B3806E81BB57
S113009090E220E480916200883C29F482B3805885
S11300A082BB1092620080916100843629F482B38D
S11300B0892782BB10926100809160008A3F51F7CA
S11300C082B3822782BB10926000E4CF1F920F920A
S11300D00FB60F9211248F93809162008F5F8093EB
S11300E06200809161008F5F809361008091600065
S11300F08F5F809360008F910F900FBE0F901F90C1
S10901001895F894FFCFEE
S9030000FC
