S0140000554152545F506F6C6C696E672E73726563A0
S11300000C942A000C9447000C9447000C9447006D
S11300100C9447000C9447000C9447000C94470040
S11300200C9447000C9447000C9447000C94470030
S11300300C9447000C9447000C9447000C94470020
S11300400C9447000C9447000C9447000C94470010
S11300500C94470011241FBECFE5D8E0DEBFCDBF0E
S113006010E0A0E6B0E0E2E6F1E002C005900D92F7
S1130070AA36B107D9F720E0AAE6B0E001C01D9284
S1130080AA36B207E1F70E9469000C94AF000C9401
S1130090000087E689B98AB188698AB980B586681B
S11300A080BD08955D9BFECF8CB908955F9BFECF04
S11300B08CB10895CF93DF93EC018881882331F0CC
S11300C021960E94520089918111FBCFDF91CF913B
S11300D0089584B38F6084BB0E94490080E690E059
S11300E00E945A000E9456008233A9F018F481330A
S11300F031F0F8CF8333D9F0843329F1F3CFA89AC0
S11301002FEF89E698E1215080409040E1F700C04C
S11301100000A898E7CFA99A2FEF89E698E121502B
S113012080409040E1F700C00000AA98DBCFAA9A73
S11301302FEF89E698E1215080409040E1F700C01C
S11301400000AA98CFCFAB9A2FEF89E698E121500F
S113015080409040E1F700C00000AB98C3CFF89412
S1050160FFCFCB
S10D01624142444F200D200A000022
S9030000FC
