S02900006D616E795F6C65645F62795F6F6E655F627574746F6E5F6C617965725F617263682E7372656363
S11300000C942A000C943F000C943F000C943F0085
S11300100C943F000C943F000C943F000C943F0060
S11300200C943F000C943F000C943F000C943F0050
S11300300C943F000C943F000C943F000C943F0040
S11300400C943F000C943F000C943F000C943F0030
S11300500C943F0011241FBECFE5D8E0DEBFCDBF16
S113006010E0A0E6B0E0EEE4F4E002C005900D92EA
S1130070A03AB107D9F70E949A010C9425020C9476
S11300800000982F9770869586958695813021F18A
S113009030F08230F1F1833009F458C008956111D1
S11300A00EC04BB321E030E0B90102C0660F771FE8
S11300B09A95E2F7CB01809584238BBB08954BB3CB
S11300C021E030E0B90102C0660F771F9A95E2F78C
S11300D0CB01842B8BBB089561110EC048B321E082
S11300E030E0B90102C0660F771F9A95E2F7CB01A1
S11300F08095842388BB089548B321E030E0B9019A
S113010002C0660F771F9A95E2F7CB01842B88BB58
S1130110089561110EC045B321E030E0B90102C079
S1130120660F771F9A95E2F7CB018095842385BBF0
S1130130089545B321E030E0B90102C0660F771F8E
S11301409A95E2F7CB01842B85BB089561110EC00B
S113015042B321E030E0B90102C0660F771F9A95DF
S1130160E2F7CB018095842382BB089542B321E05A
S113017030E0B90102C0660F771F9A95E2F7CB0110
S1130180842B82BB0895982F9770869586958695C3
S11301908130A1F028F08230F9F0833059F10895CC
S11301A089B3282F30E0A90102C0559547959A9547
S11301B0E2F7CA018170FB018083089586B3282F7A
S11301C030E0A90102C0559547959A95E2F7CA0116
S11301D08170FB018083089583B3282F30E0A90147
S11301E002C0559547959A95E2F7CA018170FB01C3
S11301F08083089580B3282F30E0A90102C055956B
S113020047959A95E2F7CA018170FB0180830895AE
S1130210869586958695813041F028F0823039F0B4
S1130220833039F0089589B3089586B3089583B36C
S1130230089580B30895E0E6F0E080E041E050E006
S1130240382F3770982F9695969596952081213062
S1130250A1F5913089F028F09230C9F0933011F172
S113026063C09AB3BA0102C0660F771F3A95E2F7EA
S11302709B01292B2ABB58C097B3BA0102C0660F51
S1130280771F3A95E2F79B01292B27BB4DC094B306
S1130290BA0102C0660F771F3A95E2F79B01292B3A
S11302A024BB42C091B3BA0102C0660F771F3A95CE
S11302B0E2F79B01292B21BB37C0913091F028F044
S11302C09230D9F0933029F12FC02AB3BA0102C079
S11302D0660F771F3A95E2F7962F909592239ABB73
S11302E023C027B3BA0102C0660F771F3A95E2F71D
S11302F0962F9095922397BB17C024B3BA0102C0DE
S1130300660F771F3A95E2F7962F9095922394BB48
S11303100BC021B3BA0102C0660F771F3A95E2F70A
S1130320962F9095922391BB8F5F3296803209F07D
S113033087CF0895CF93DF931F92CDB7DEB70E9486
S11303401B0111E003E06894FF24F2F8BE016F5F23
S11303507F4F88E10E94C30089818130B9F72FEF74
S113036089EF90E0215080409040E1F700C0000008
S1130370123081F118F41130A9F0E8CF133009F4E8
S113038041C0143009F456C0E1CF61E080E00E941E
S113039041002FEF8DEE92E0215080409040E1F734
S11303A000C0000088E10E940801813071F360E020
S11303B080E00E94410012E0C9CF61E081E00E9428
S11303C041002FEF8DEE92E0215080409040E1F704
S11303D000C0000088E10E940801813071F360E0F0
S11303E081E00E944100102FB1CF61E082E00E94C1
S11303F041002FEF8DEE92E0215080409040E1F7D4
S113040000C0000088E10E940801813071F360E0BF
S113041082E00E9441001F2D99CF61E0802F0E944D
S113042041002FEF8DEE92E0215080409040E1F7A3
S113043000C0000088E10E940801813071F360E08F
S1110440802F0E94410011E081CFF894FFCF7D
S113044E0100010001000100010001000100010092
S113045E0100010001000100010001000100010082
S113046E0100010001000100010001000100010072
S113047E0000000000000100010001000100010065
S9030000FC
