:100000000C942A000C9447000C9447000C94470071
:100010000C9447000C9447000C9447000C94470044
:100020000C9447000C9447000C9447000C94470034
:100030000C9447000C9447000C9447000C94470024
:100040000C9447000C9447000C9447000C94470014
:100050000C94470011241FBECFE5D8E0DEBFCDBF12
:1000600010E0A0E6B0E0EAEDF0E002C005900D92ED
:10007000AA36B107D9F720E0AAE6B0E001C01D9288
:10008000AB36B207E1F70E9449000C946B000C9468
:1000900000008CEF84BB8898819B16C02FEF86E709
:1000A00091E0215080409040E1F700C00000E091D5
:1000B0006A00F0E0E05AFF4F808185BB80916A00C2
:1000C0008F5F80936A00E8CF80916A008A3021F7C1
:0A00D00010926A00E1CFF894FFCF10
:0A00DA000C1C2C3C4C5C6C7C8C9CD4
:00000001FF
