S019000054305F466173745F50574D5F4D6F746F722E73726563D7
S11300000C942A000C943C000C943C000C943C008E
S11300100C943C000C943C000C943C000C943C006C
S11300200C943C000C943C000C943C000C943C005C
S11300300C943C000C943C000C943C000C943C004C
S11300400C943C000C943C000C943C000C943C003C
S11300500C943C0011241FBECFE5D8E0DEBFCDBF19
S113006020E0A0E6B0E001C01D92A036B207E1F79F
S11300700E943E000C944A000C940000BB9A81B389
S1130080836081BB83B7896683BF8FEF8CBF919AEE
S10B00909098FDCFF894FFCF16
S9030000FC
