S0140000536D6172745F4D61737465722E737265633E
S11300000C942A000C9447000C9447000C9447006D
S11300100C9447000C9447000C9447000C94470040
S11300200C9447000C9447000C9447000C94470030
S11300300C9447000C9447000C9447000C94470020
S11300400C9447000C9447000C9447000C94470010
S11300500C94470011241FBECFE5D8E0DEBFCDBF0E
S113006010E0A0E6B0E0E8E1F2E002C005900D92F5
S1130070AA36B107D9F720E0AAE6B0E001C01D9284
S1130080AA36B207E1F70E9478000C940A010C9496
S1130090000087E689B98AB188698AB980B586681B
S11300A080BD08955D9BFECF8CB908955F9BFECF04
S11300B08CB10895CF93DF93EC018881882331F0CC
S11300C021960E94520089918111FBCFDF91CF913B
S11300D0089587B3806A87BB84B3816184BB8DB183
S11300E081658DB908958FB9779BFECF8FB108953F
S11300F084B38F6084BB0E94490080E690E00E9434
S11301005A000E94690014E0C0E1D2E00E94560047
S1130110823339F118F4813339F0F8CF8333F1F1B4
S1130120843309F459C0F2CFA8988AEA0E94730074
S1130130A89A2FEF33ED90E3215030409040E1F73F
S113014000C00000853511F785B38C2785BB2FEFE0
S113015033ED80E3215030408040E1F700C00000DF
S1130160D5CFA8988BEB0E947300A89A9FEF23ED3C
S113017030E3915020403040E1F700C00000863663
S113018029F685B38D2785BB8FEF93ED20E381504E
S113019090402040E1F700C00000B8CFA8988DED52
S11301A00E947300A89A3FEF93ED20E331509040F2
S11301B02040E1F700C00000873709F0A7CF85B3DE
S11301C0812785BB3FEF83ED90E331508040904021
S11301D0E1F700C000009ACFA8988FEF0E94730047
S11301E0A89A2FEF33ED90E3215030409040E1F78F
S11301F000C00000883809F089CF85B38C2785BBFF
S11302002FEF33ED80E3215030408040E1F700C010
S10B021000007CCFF894FFCF3D
S10D02184142444F200D200A00006B
S9030000FC
