:100000000C942A000C943F000C943F000C943F0089
:100010000C943F000C943F000C943F000C943F0064
:100020000C943F000C943F000C943F000C943F0054
:100030000C943F000C943F000C943F000C943F0044
:100040000C943F000C943F000C943F000C943F0034
:100050000C943F0011241FBECFE5D8E0DEBFCDBF1A
:1000600010E0A0E6B0E0E2EEF0E002C005900D92F4
:10007000AA36B107D9F70E9441000C946F000C9486
:1000800000008FEF8ABBE0E6F0E090819BBB87BB6E
:10009000808188BB14BA81E085BB90E03DECA899D3
:1000A00002C09F5F01C090E0939FE12D1124E6956F
:1000B000E695E6952E2F220F822F880F880F820F4C
:1000C000A92FA81BB0E0A05ABF4F8C918BBBF0E0CA
:1000D000E05AFF4F808188BB989BFECFE0CFF89419
:0200E000FFCF50
:0A00E2003F065B4F666D7D077FFB54
:00000001FF
